{
  "contractName": "Adoption",
  "abi": [
    {
      "constant": true,
      "inputs": [
        {
          "name": "",
          "type": "uint256"
        }
      ],
      "name": "buyers",
      "outputs": [
        {
          "name": "",
          "type": "address"
        }
      ],
      "payable": false,
      "stateMutability": "view",
      "type": "function"
    },
    {
      "constant": false,
      "inputs": [
        {
          "name": "homeId",
          "type": "uint256"
        }
      ],
      "name": "buy",
      "outputs": [
        {
          "name": "",
          "type": "uint256"
        }
      ],
      "payable": false,
      "stateMutability": "nonpayable",
      "type": "function"
    },
    {
      "constant": true,
      "inputs": [],
      "name": "getAdopters",
      "outputs": [
        {
          "name": "",
          "type": "address[12]"
        }
      ],
      "payable": false,
      "stateMutability": "view",
      "type": "function"
    }
  ],
  "bytecode": "0x608060405234801561001057600080fd5b506102d8806100206000396000f300608060405260043610610057576000357c0100000000000000000000000000000000000000000000000000000000900463ffffffff1680633de4eb171461005c578063d96a094a146100af578063f2aa8218146100f0575b600080fd5b34801561006857600080fd5b5061007161015d565b6040518082600c60200280838360005b8381101561009c578082015181840152602081019050610081565b5050505090500191505060405180910390f35b3480156100bb57600080fd5b506100da600480360381019080803590602001909291905050506101de565b6040518082815260200191505060405180910390f35b3480156100fc57600080fd5b5061011b60048036038101908080359060200190929190505050610253565b604051808273ffffffffffffffffffffffffffffffffffffffff1673ffffffffffffffffffffffffffffffffffffffff16815260200191505060405180910390f35b610165610288565b6000600c806020026040519081016040528092919082600c80156101d4576020028201915b8160009054906101000a900473ffffffffffffffffffffffffffffffffffffffff1673ffffffffffffffffffffffffffffffffffffffff168152602001906001019080831161018a575b5050505050905090565b60008082101580156101f15750600b8211155b15156101fc57600080fd5b33600083600c8110151561020c57fe5b0160006101000a81548173ffffffffffffffffffffffffffffffffffffffff021916908373ffffffffffffffffffffffffffffffffffffffff160217905550819050919050565b600081600c8110151561026257fe5b016000915054906101000a900473ffffffffffffffffffffffffffffffffffffffff1681565b61018060405190810160405280600c906020820280388339808201915050905050905600a165627a7a72305820e3c1436698ebe7374343b55a53e857956e152c278b5ec2ae629c0199adfabc460029",
  "source": "pragma solidity ^0.4.17;\n\ncontract Adoption {\n  address[12] public buyers;\n  // Adopting a pet\n  function buy(uint homeId) public returns (uint) {\n    require(homeId >= 0 && homeId <= 11);\n\n    buyers[homeId] = msg.sender;\n\n    return homeId;\n  }\n\n  // Retrieving the buyers\nfunction getAdopters() public view returns (address[12]) {\n  return buyers;\n}\n\n}\n",
  "sourcePath": "/Users/jsutton/dev/RealEstateChain/rec-store/contracts/Adoption.sol",
  "compiler": {
    "name": "solc",
    "version": "0.4.23+commit.124ca40d.Emscripten.clang"
  },
  "schemaVersion": "2.0.0",
  "updatedAt": "2018-05-05T03:38:42.392Z"
}